{
  "_format": "hh-sol-artifact-1",
  "contractName": "CertificateVerifier",
  "sourceName": "contracts/CertificateVerifier.sol",
  "abi": [
    {
      "anonymous": false,
      "inputs": [
        {
          "indexed": false,
          "internalType": "string",
          "name": "certId",
          "type": "string"
        }
      ],
      "name": "CertificateAdded",
      "type": "event"
    },
    {
      "anonymous": false,
      "inputs": [
        {
          "indexed": false,
          "internalType": "string",
          "name": "certId",
          "type": "string"
        }
      ],
      "name": "CertificateRemoved",
      "type": "event"
    },
    {
      "inputs": [
        {
          "internalType": "string",
          "name": "certId",
          "type": "string"
        }
      ],
      "name": "addCertificate",
      "outputs": [],
      "stateMutability": "nonpayable",
      "type": "function"
    },
    {
      "inputs": [
        {
          "internalType": "string",
          "name": "",
          "type": "string"
        }
      ],
      "name": "certificates",
      "outputs": [
        {
          "internalType": "bool",
          "name": "",
          "type": "bool"
        }
      ],
      "stateMutability": "view",
      "type": "function"
    },
    {
      "inputs": [],
      "name": "getAllCertificates",
      "outputs": [
        {
          "internalType": "string[]",
          "name": "",
          "type": "string[]"
        }
      ],
      "stateMutability": "view",
      "type": "function"
    },
    {
      "inputs": [
        {
          "internalType": "string",
          "name": "certId",
          "type": "string"
        }
      ],
      "name": "removeCertificate",
      "outputs": [],
      "stateMutability": "nonpayable",
      "type": "function"
    },
    {
      "inputs": [
        {
          "internalType": "string",
          "name": "certId",
          "type": "string"
        }
      ],
      "name": "verifyCertificate",
      "outputs": [
        {
          "internalType": "bool",
          "name": "",
          "type": "bool"
        }
      ],
      "stateMutability": "view",
      "type": "function"
    }
  ],
  "bytecode": "0x608060405234801561001057600080fd5b50610c33806100206000396000f3fe608060405234801561001057600080fd5b50600436106100575760003560e01c80630a99e4f81461005c57806313fcfe8014610078578063546a16d5146100965780638b23d875146100b25780638f2b91ea146100e2575b600080fd5b6100766004803603810190610071919061059c565b610112565b005b610080610224565b60405161008d9190610726565b60405180910390f35b6100b060048036038101906100ab919061059c565b6102fd565b005b6100cc60048036038101906100c7919061059c565b6103d8565b6040516100d99190610763565b60405180910390f35b6100fc60048036038101906100f7919061059c565b61040c565b6040516101099190610763565b60405180910390f35b60008160405161012291906107ba565b908152602001604051809103902060009054906101000a900460ff161561017e576040517f08c379a00000000000000000000000000000000000000000000000000000000081526004016101759061082e565b60405180910390fd5b600160008260405161019091906107ba565b908152602001604051809103902060006101000a81548160ff0219169083151502179055506001819080600181540180825580915050600190039060005260206000200160009091909190915090816101e99190610a64565b507f3ed6146dabe95f3b883594a244c0e64ec313b09dd0b41cbfd3affd1770ad0a9d816040516102199190610b6f565b60405180910390a150565b60606001805480602002602001604051908101604052809291908181526020016000905b828210156102f45783829060005260206000200180546102679061087d565b80601f01602080910402602001604051908101604052809291908181526020018280546102939061087d565b80156102e05780601f106102b5576101008083540402835291602001916102e0565b820191906000526020600020905b8154815290600101906020018083116102c357829003601f168201915b505050505081526020019060010190610248565b50505050905090565b60008160405161030d91906107ba565b908152602001604051809103902060009054906101000a900460ff16610368576040517f08c379a000000000000000000000000000000000000000000000000000000000815260040161035f90610bdd565b60405180910390fd5b6000808260405161037991906107ba565b908152602001604051809103902060006101000a81548160ff0219169083151502179055507fc5a67269dbb03740298b7fab9f5bbaae5807a91f18cde3ea21694e3e64e1d1c6816040516103cd9190610b6f565b60405180910390a150565b600080826040516103e991906107ba565b908152602001604051809103902060009054906101000a900460ff169050919050565b6000818051602081018201805184825260208301602085012081835280955050505050506000915054906101000a900460ff1681565b6000604051905090565b600080fd5b600080fd5b600080fd5b600080fd5b6000601f19601f8301169050919050565b7f4e487b7100000000000000000000000000000000000000000000000000000000600052604160045260246000fd5b6104a982610460565b810181811067ffffffffffffffff821117156104c8576104c7610471565b5b80604052505050565b60006104db610442565b90506104e782826104a0565b919050565b600067ffffffffffffffff82111561050757610506610471565b5b61051082610460565b9050602081019050919050565b82818337600083830152505050565b600061053f61053a846104ec565b6104d1565b90508281526020810184848401111561055b5761055a61045b565b5b61056684828561051d565b509392505050565b600082601f83011261058357610582610456565b5b813561059384826020860161052c565b91505092915050565b6000602082840312156105b2576105b161044c565b5b600082013567ffffffffffffffff8111156105d0576105cf610451565b5b6105dc8482850161056e565b91505092915050565b600081519050919050565b600082825260208201905092915050565b6000819050602082019050919050565b600081519050919050565b600082825260208201905092915050565b60005b8381101561064b578082015181840152602081019050610630565b60008484015250505050565b600061066282610611565b61066c818561061c565b935061067c81856020860161062d565b61068581610460565b840191505092915050565b600061069c8383610657565b905092915050565b6000602082019050919050565b60006106bc826105e5565b6106c681856105f0565b9350836020820285016106d885610601565b8060005b8581101561071457848403895281516106f58582610690565b9450610700836106a4565b925060208a019950506001810190506106dc565b50829750879550505050505092915050565b6000602082019050818103600083015261074081846106b1565b905092915050565b60008115159050919050565b61075d81610748565b82525050565b60006020820190506107786000830184610754565b92915050565b600081905092915050565b600061079482610611565b61079e818561077e565b93506107ae81856020860161062d565b80840191505092915050565b60006107c68284610789565b915081905092915050565b600082825260208201905092915050565b7f436572746966696b61742076656320706f73746f6a6900000000000000000000600082015250565b60006108186016836107d1565b9150610823826107e2565b602082019050919050565b600060208201905081810360008301526108478161080b565b9050919050565b7f4e487b7100000000000000000000000000000000000000000000000000000000600052602260045260246000fd5b6000600282049050600182168061089557607f821691505b6020821081036108a8576108a761084e565b5b50919050565b60008190508160005260206000209050919050565b60006020601f8301049050919050565b600082821b905092915050565b6000600883026109107fffffffffffffffffffffffffffffffffffffffffffffffffffffffffffffffff826108d3565b61091a86836108d3565b95508019841693508086168417925050509392505050565b6000819050919050565b6000819050919050565b600061096161095c61095784610932565b61093c565b610932565b9050919050565b6000819050919050565b61097b83610946565b61098f61098782610968565b8484546108e0565b825550505050565b600090565b6109a4610997565b6109af818484610972565b505050565b5b818110156109d3576109c860008261099c565b6001810190506109b5565b5050565b601f821115610a18576109e9816108ae565b6109f2846108c3565b81016020851015610a01578190505b610a15610a0d856108c3565b8301826109b4565b50505b505050565b600082821c905092915050565b6000610a3b60001984600802610a1d565b1980831691505092915050565b6000610a548383610a2a565b9150826002028217905092915050565b610a6d82610611565b67ffffffffffffffff811115610a8657610a85610471565b5b610a90825461087d565b610a9b8282856109d7565b600060209050601f831160018114610ace5760008415610abc578287015190505b610ac68582610a48565b865550610b2e565b601f198416610adc866108ae565b60005b82811015610b0457848901518255600182019150602085019450602081019050610adf565b86831015610b215784890151610b1d601f891682610a2a565b8355505b6001600288020188555050505b505050505050565b6000610b4182610611565b610b4b81856107d1565b9350610b5b81856020860161062d565b610b6481610460565b840191505092915050565b60006020820190508181036000830152610b898184610b36565b905092915050565b7f436572746966696b6174204e4520706f73746f6a690000000000000000000000600082015250565b6000610bc76015836107d1565b9150610bd282610b91565b602082019050919050565b60006020820190508181036000830152610bf681610bba565b905091905056fea2646970667358221220fc11150d16aca18201bb73dc219764d540e6d4054397e681a0f3fbf02cc57f8864736f6c63430008140033",
  "linkReferences": {},
  "deployedLinkReferences": {}
}